:100000000C94C6000C94EE000C94EE000C94EE00E0
:100010000C94EE000C94EE000C94EE000C94EE00A8
:100020000C94EE000C94EE000C9447060C94B6066B
:100030000C94EE000C94EE000C94EE000C94EE0088
:100040000C94EE000C94EE000C94EE000C94EE0078
:100050000C94EE000C94EE000C94EE000C94FD0554
:100060000C94EE000C94EE000C94EE000C94EE0058
:100070000C94EE000C94EE000C94EE000C94EE0048
:100080000C94EE000C94EE000C94EE000C94EE0038
:100090000C94EE000C94EE000C94EE000C94EE0028
:1000A0000C94EE000C94EE000C94EE00080B000291
:1000B0000202000009040000010202000005240001
:1000C0001001052401010104240206052406000193
:1000D0000705810310004009040100020A00000026
:1000E00007050202400000070583024000000403E8
:1000F000090412010002EF0201404F1B06920001A9
:1001000001020301537061726B46756E004F70659A
:100110006E4C6F6769636F6F6C2053657269616CB9
:10012000204849440005010906A101850105071978
:10013000E029E715002501750195088102750895EC
:1001400001810119002ADF00150026DF00750895DE
:10015000068100C005010902A10185020901A10073
:10016000050919012905150025019505750181026B
:10017000950175038101050109300931093815819F
:10018000257F750895038106C0C0E80811241FBEAD
:10019000CFEFDAE0DEBFCDBF11E0A0E0B1E0EAE5ED
:1001A000F9E102C005900D92AA33B107D9F722E018
:1001B000AAE3B1E001C01D92A730B207E1F710E059
:1001C000C6ECD0E004C02197FE010E94A50CC53CFE
:1001D000D107C9F70E9435090C94AB0C0C940000B0
:1001E000FC018091B001882311F13FB7F89482E0BF
:1001F0008093E9002091F200822F90E018161906F2
:1002000014F481E090E0882339F0289844E6409384
:10021000AF014091F1004083222339F02091F20098
:10022000211103C02BE62093E8003FBF08958FEF14
:100230009FEF08953FB7F8948091AB019091AC0186
:10024000A091AD01B091AE0126B5A89B05C02F3F8E
:1002500019F00196A11DB11D3FBFBA2FA92F982FEC
:100260008827BC01CD01620F711D811D911D42E0E7
:10027000660F771F881F991F4A95D1F70895CF926F
:10028000DF92EF92FF920E941A016B017C010E94A3
:100290001A016C197D098E099F09683E734081051A
:1002A0009105A8F3FF90EF90DF90CF9008954091D3
:1002B00061015091620120915F013091600142170C
:1002C0005307B4F49091E8009570E1F39091E80041
:1002D00092FD19C08093F1008091610190916201BB
:1002E00001968F739927892B19F48EEF8093E8007C
:1002F00080916101909162010196909362018093D7
:10030000610181E0089580E00895EF92FF920F93DC
:100310001F93CF93DF93F82E192FE62E042F81E041
:10032000860F880F0E94570183E00E945701CF2D4E
:10033000D12FEC0EFD2EF11CCE15DF05B9F007FF15
:1003400013C0FE0184910E945701182F80E00E9483
:100350005701812321968111EFCFDF91CF911F911A
:100360000F91FF90EF9008958881EDCF81E0F5CF58
:10037000DF92EF92FF920F931F93CF93DF93D82ECC
:100380008A01EB017B01E40EF51ECE15DF0559F065
:10039000D7FE12C0FE0184910E945701219681115F
:1003A000F4CF0FEF1FEFC801DF91CF911F910F9195
:1003B000FF90EF90DF9008958881EECF2FB7F894EB
:1003C00087708093E9009091E800892F807295FFF3
:1003D00004C09091F20080E4891B2FBF08957F92A2
:1003E0008F929F92AF92BF92CF92DF92EF92FF9245
:1003F0000F931F93CF93DF93C82E8B017A018091C7
:10040000B001811110C08FEF9FEFDF91CF911F914D
:100410000F91FF90EF90DF90CF90BF90AF909F90A3
:100420008F907F9008958091650180FF05C0809135
:10043000E00082608093E000CE2DDF2DD12C8AEF8A
:10044000B82E8C2D8770982E8C2D8072882E8C2D36
:100450008074782E9AE3A92E209719F4DD2009F4F0
:100460004EC08C2D0E94DE01811106C0BA94BB20C3
:1004700051F20E943F01F0CF8C171D0611F00CF0D5
:100480008C2F9FB7F8949092E9002091E80025FD09
:1004900002C09FBFE1CF282F30E0C21BD30B8820C2
:1004A00029F08150A0F01092F100FBCFF801C7FCB9
:1004B0000AC0815050F041914093F100FACF44912D
:1004C0004093F10031968150D0F7020F131FDD20C9
:1004D00021F0A092E800D12CDCCF8091E80085FDCE
:1004E00007C0A092E800DD24D394209791F2F3CFC7
:1004F000209779F6772069F2A092E800CACF5D983C
:1005000084E680936401C70180CF615030F0209170
:10051000F100FC0120830196F8CF289884E68093AF
:10052000AF0108958091570181110DC082E0809341
:10053000530184E0809354011092560110925501AA
:1005400081E08093570183E591E008950F931F9315
:10055000CF93DF931F92CDB7DEB782E0898342E469
:1005600050E06CEA70E080E80E94B8010E949202BC
:10057000DC0112960D911C910115110589F0D8012D
:10058000ED91FC910280F381E02DBE016F5F7F4F02
:10059000C801099597FD04C0F80100851185ECCFCD
:1005A00089810F90DF91CF911F910F910895CF9383
:1005B000DF93EC0180911201882331F083E00E94E7
:1005C000EF011816190634F081E090E09B838A83CE
:1005D00080E090E0DF91CF910895CF93DF931F9259
:1005E000CDB7DEB76983DC01ED91FC910280F38128
:1005F000E02D41E050E0BE016F5F7F4F09950F9005
:10060000DF91CF91089583E08093E9008091F2001B
:10061000882319F08AE38093E800089583E00E941C
:10062000DE0190E00895CF93DF931F92CDB7DEB740
:10063000FC018485958597FD08C02FEF3FEF358736
:1006400024870F90DF91CF910895CE0101960E94EB
:10065000F000019719F4898190E0F3CF8FEF9FEFBD
:10066000F0CF0F931F93CF93DF931F92CDB7DEB7D9
:100670008C01FC018485958597FF0BC0CE01019606
:100680000E94F000019771F4898190E0F80195874C
:100690008487F801848595850F90DF91CF911F9114
:1006A0000F9108958FEF9FEFF1CFFC018485958521
:1006B00097FD0BC09FB7F89482E08093E90080918A
:1006C000F2009FBF90E0019608959FB7F89482E0F2
:1006D0008093E9008091F2009FBF90E00895DC01D3
:1006E000FB0112962C911297848195812817190687
:1006F00041F491818081813A31F49D7F81E0913094
:1007000009F080E008958132E1F79B3029F482817D
:100710001F968C9381E008959A3099F782815096C4
:100720008C93F8CFAF92BF92CF92DF92EF92FF926D
:100730000F931F93CF93DF931F92CDB7DEB77C014A
:1007400069836A01590141E050E0BE016F5F7F4F4C
:10075000FC0183810E94EF018C0197FD0BC0F70122
:100760008381A501B60180640E94EF01080F191F63
:1007700097FD8C01C8010F90DF91CF911F910F91D0
:10078000FF90EF90DF90CF90BF90AF900895DC0185
:10079000FB0188E4808389E4818384E482831D965D
:1007A0009C911D979F709F5B93831D968D919C914B
:1007B00024E0969587952A95E1F78F708F5B848367
:1007C00085E00895EF92FF920F931F93CF93DF93ED
:1007D000FB012081213871F52381223259F5DC019A
:1007E00012964C91248135814217130619F5EC01BC
:1007F0000B851C85F12CE12C0115110589F0F80100
:10080000448155816281738180E80E94B8018F3FE5
:10081000980749F0E80EF91ED8010D911C91ECCF14
:1008200081E08F87C701DF91CF911F910F91FF90DA
:10083000EF90089590E080E0F6CFCF93DF93CDB7AF
:10084000DEB769970FB6F894DEBF0FBECDBFFC01CF
:10085000DB018C918F5F8C939E012D5F3F4F8DE06C
:10086000D9011D928A95E9F729E0298384E08A83DA
:1008700091E09D8383E08E832A8721E22B879C87EA
:100880009D879F8722E2288B27E02B8B25E02C8BEE
:100890008E8B20E430E0388F2F8B998F82818B8371
:1008A00095858685998B8A8B838180688D8B49E1BC
:1008B00050E0BE016F5F7F4F80E00E94B8016996F3
:1008C0000FB6F894DEBF0FBECDBFDF91CF91089574
:1008D000CF93DF9380914B01811167C081E08093BA
:1008E0003E0180933F0124E431E0309341012093A5
:1008F0004001109243011092420120E231E0309316
:100900003B0120933A01109246011092450110924A
:100910004801109247018093490180934A0181EC7C
:10092000809344010E949202FC01818190913E01DA
:10093000482F490F5527551F483051059CF5A28176
:10094000B381109709F52AE331E0338322832081B4
:1009500020933C0180933D0180913F01820F808371
:1009600020914001A22FB09141018A2F821B89174B
:10097000C8F481813D91C82FD0E0C050DF4F38834B
:100980008F5F8183F2CFD90118962D913C911997F1
:1009900021153105C1F72AE331E019963C932E93D6
:1009A0001897D5CF81E080934B018AE391E0DF91E6
:1009B000CF9108950F931F93CF93DF93CDB7DEB7F9
:1009C0002C970FB6F894DEBF0FBECDBF8E010F5F20
:1009D0001F4F88E0F80111928A95E9F719861A8667
:1009E0001B861C860E94680428E030E0A80161E0B4
:1009F0000E9492038C010E94680424E030E0AE0162
:100A0000475F5F4F62E00E94920380E017FD05C0E0
:100A1000892F8095881F8827881F2C960FB6F894F9
:100A2000DEBF0FBECDBFDF91CF911F910F91089513
:100A3000FC01680F791F8FEF9FEF2191922728E02B
:100A4000AC01880F991F57FF04C031E2832730E1C2
:100A500093272150A9F7E617F70779F708952FB7DD
:100A6000F8948091A7019091A801A091A901B0915B
:100A7000AA012FBFE8E6F1E081839283A383B483C8
:100A800081E080830895EF92FF920F931F93CF939D
:100A9000DF93CDB7DEB7AA970FB6F894DEBF0FBECF
:100AA000CDBF79019AE0E90EF11C6115710511F4D1
:100AB000873071F59FE499839CE49A8391E09B834E
:100AC0008C836D837E832F831886FA01DE0119964D
:100AD000420F531F4E175F0719F081918D93FACF84
:100AE0008901085F1F4FB801CE0101960E941805C9
:100AF000E1E0F0E0EC0FFD1FE00FF11F8083918338
:100B0000A701BE016F5F7F4F81EB91E00E94D7028A
:100B1000AA960FB6F894DEBF0FBECDBFDF91CF917E
:100B20001F910F91FF90EF900895CF93DF9300D026
:100B3000CDB7DEB789834A8322E030E0AE014F5F54
:100B40005F4F87E00E9443050F900F90DF91CF9198
:100B5000089530E020E050E040E0BC0186E00C94D5
:100B6000430510927601E8E6F1E0108211821282CC
:100B70001382148210927501109274011092720106
:100B8000109273011092A5011092A40110927901A4
:100B9000109278010895809377018823D9F02FB7B8
:100BA000F8948091A7019091A801A091A901B0911A
:100BB000AA012FBF20916D01211116C080936E01F3
:100BC00090936F01A0937001B093710181E08093C5
:100BD0006D01089510926D0110926E0110926F01D7
:100BE000109270011092710108950E94B1050E9447
:100BF000DA0491E089270C94CB051F920F920FB66F
:100C00000F9211242F933F938F939F93AF93BF9392
:100C10008091A7019091A801A091A901B091AA018A
:100C20003091A60123E0230F2D3758F50196A11D21
:100C3000B11D2093A6018093A7019093A801A093D2
:100C4000A901B093AA018091AB019091AC01A09150
:100C5000AD01B091AE010196A11DB11D8093AB0114
:100C60009093AC01A093AD01B093AE01BF91AF9151
:100C70009F918F913F912F910F900FBE0F901F90DA
:100C8000189526E8230F0296A11DB11DD2CF1F9201
:100C90000F920FB60F9211248F939F938091E100D2
:100CA0009091E100937F9093E10083FF0FC0109239
:100CB000E90091E09093EB001092EC0092E39093A6
:100CC000ED001092B00198E09093F00082FF22C0F6
:100CD00093E09093E9009091F200992319F09AE340
:100CE0009093E80090916401992341F09091640100
:100CF000915090936401911101C05D9A9091AF0160
:100D0000992341F09091AF0191509093AF019111CF
:100D100001C0289A84FF18C08091E2008E7E816015
:100D20008093E2008091E1008F7E8093E1008091CA
:100D300065018E7E8061809365019F918F910F90F8
:100D40000FBE0F901F90189580FFF7CF8091E200A3
:100D50008E7E80618093E2008091E1008E7E8093A0
:100D6000E100809165018E7E8160E5CF1F920F9238
:100D70000FB60F921124CF92DF92EF92FF920F9352
:100D80001F932F933F934F935F936F937F938F9313
:100D90009F93AF93BF93EF93FF93CF93DF93CDB721
:100DA000DEB76C97DEBFCDBF1092E9008091E800FE
:100DB00083FF25C068E0CE0145960E94850282EF40
:100DC0008093E8008D8987FF39C09091E80090FFFB
:100DD000FCCF982F907609F034C19E894F89588DA9
:100DE0002F89F88C911131C0803861F580916601AE
:100DF0008093F1001092F1008EEF8093E8006C96E2
:100E00000FB6F894DEBF0FBECDBFDF91CF91FF913B
:100E1000EF91BF91AF919F918F917F916F915F9172
:100E20004F913F912F911F910F91FF90EF90DF9085
:100E3000CF900F900FBE0F901F9018959EEF90933C
:100E4000E800C7CF1092F100D5CF913059F481114D
:100E5000D3CF4130510581F6809166018D7F80931B
:100E60006601CACF933049F48111C6CF4130510594
:100E700019F6809166018260F2CF953041F480913D
:100E8000E80080FFFCCF20682093E300B5CF9630C8
:100E900009F0A9C00B8D1C8D22E01092E900109280
:100EA000620110926101F2122EC010926001109244
:100EB0005F010E94A6021F8299E09983FA8291E065
:100EC0009E8390EA98879AEF9987209161013091EB
:100ED0006201275F3F4F3C832B838D831092E90093
:100EE00010926201109261011093600100935F0102
:100EF00049E050E0BE016F5F7F4F80E00E94B80183
:100F00000E94A60279CF1093600100935F010E94B6
:100F10009202DC0112960D911C910115110509F444
:100F200051C1D801ED91FC910480F581E02DBE0105
:100F30006B5E7F4FC8010995009709F03EC1F8012B
:100F400000851185EACFF3E0FF120EC08F89882358
:100F500009F440C0823061F440E867E18DE091E03F
:100F60000E948501811148CF81E28093EB0047CF39
:100F7000813029F440E868E084E091E0F1CF8330EB
:100F800099F70E949202DC011296ED90FC908E017E
:100F90000F5F1F4F6801E114F10479F0D701ED9163
:100FA000FC910680F781E02DB801C7010995080F73
:100FB000111DF701E084F184EECFD8011C92F601F7
:100FC00001900020E9F73197BF016C197D0940E0DD
:100FD000C601C6CF6EEE70E0FB01449150E080E8A0
:100FE0000E94B80109CF973009F4BECF983021F4A0
:100FF00081E08093F10000CF993009F0FDCE83703D
:1010000009F0B2CFE1E0F1E081E031E096E3219137
:10101000222371F08093E9003093EB00DF011197F8
:101020002C912093EC009093ED008F5F873079F73F
:101030008EE78093EA001092EA008F898093B001D6
:10104000DBCE8B8D9C8D1092E90010926201109284
:1010500061019093600180935F01898D811192C03D
:101060008E899D89913A49F4813209F07DCF47E01C
:1010700050E06BE071E080E0B3CF913209F074CFC3
:10108000833269F48F89988DB0E0A0E080930701E6
:1010900090930801A0930901B0930A01ADCE80326C
:1010A00069F48091E80082FFFCCF67E08BE091E07B
:1010B0000E9485028BEF8093E8009ECE823209F079
:1010C0009BCE8F8980931201EEEFFFE7859194917B
:1010D0008B3F9C4D51F1E0E0F8E080910B01909145
:1010E0000C01A0910D01B0910E01803B9440A1052F
:1010F000B105F1F48091120180FD1AC0EE3F8AE043
:10110000F80789F587E797E79183808380916000EE
:101110008093630188E19BE00FB6F894A8958093D3
:1011200060000FBE9093600067CEEEEFFAE0D5CF7F
:10113000808191818737974709F05ECEA89580918D
:1011400060008861809360008091630180936000FB
:10115000EE3F2AE0F20789F08091FE0A9091FF0AA3
:101160009183808349CE808191818737980751F29E
:101170009093FF0A8093FE0AC5CF1092FF0A109247
:10118000FE0A3ACE0E949202DC0112960D911C9149
:101190000115110509F4E8CED801ED91FC910190FB
:1011A000F081E02DBE016B5E7F4FC8010995811172
:1011B00023CEF80100851185EBCF181619060CF423
:1011C0001BCED2CEF1E0FF12BECE62EF70E004CFB4
:1011D0001092B4011092B30188EE93E0A0E0B0E069
:1011E0008093B5019093B601A093B701B093B80175
:1011F0008CE291E09093B2018093B1018FEF9FEF69
:101200009093BE018093BD011092020210920102E0
:1012100085E291E0909304028093030285E690E0DA
:1012200090930602809305020E946804FC01A38546
:10123000B485109781F481E092E094878387858557
:1012400096852091050230910602820F931F9687A2
:1012500085870895DC018D919C9111970097D1F7B6
:1012600081E092E08D939C93EACFCF93DF93CDB74B
:10127000DEB72D970FB6F894DEBF0FBECDBF7894C2
:1012800084B5826084BD84B5816084BD85B582608B
:1012900085BD85B5816085BD80916E00816080933C
:1012A0006E001092810080918100826080938100A5
:1012B00080918100816080938100809180008160B5
:1012C0008093800080919100826080939100809152
:1012D0009100816080939100809190008160809363
:1012E00090008091C10084608093C1008091C10012
:1012F00082608093C1008091C10081608093C100B1
:101300008091C30081608093C3008091C00082609F
:101310008093C0008091C20081608093C200809160
:101320007A00846080937A0080917A008260809352
:101330007A0080917A00816080937A0080917A00AF
:10134000806880937A001092B0011092660110922A
:1013500065018091D70081608093D70080EA8093F7
:10136000D80089B5806189BD89B5826089BD09B41D
:1013700000FEFDCF0E943F018091D8008F7C8061EC
:101380008093D8008091E000807F8093E00080917E
:10139000E1008E7E8093E1008DE08093E200559A1B
:1013A000209A84B7877F84BF0FB6F894A895809160
:1013B0006000886180936000109260000FBE0E9400
:1013C000B1058FEF9FEF9093BE018093BD01809197
:1013D000B00191E0811101C090E0909367018823F2
:1013E00009F465C00E94DA0491E089270E94CB05C8
:1013F00088E19FE00FB6F894A895809360000FBE37
:1014000090936000EE24E3945524539466246394EF
:10141000712C20E0822E20E0922E2FB7F89480913C
:101420000B0190910C01A0910D01B0910E012FBF05
:10143000803B9440A105B10521F48091120180FF09
:101440004FC2A8951091B00181E0111101C080E058
:1014500090916701981761F0809367010E94B10530
:1014600080E0112319F00E94DA048E250E94CB053A
:1014700096E9392E81EB91E00E9455031816190662
:101480000CF0F2C181EB91E00E9413034091A401A2
:101490005091A5014115510561F48F3431F47092DA
:1014A000A5016092A40180937A01A895E3CF80E022
:1014B0009DCF4130510569F48C3459F021E030E082
:1014C0008F3411F030E020E03093A5012093A40187
:1014D000ECCF9A012F5F3F4F3093A5012093A401D9
:1014E00046585E4FFA01808328303105B1F480916F
:1014F0008001909181018132910550F060917E01CF
:1015000070917F0140917D0184E00E949505ADC0FE
:101510000A96909379018093780180917801909157
:101520007901009711F22817390709F0BECFC09052
:101530007E01D0907F012630310530F42430310512
:1015400008F45EC0D12CC12CF0907D012A30310509
:1015500008F459C080917A018F3409F056C0809107
:101560007B018C3409F051C0A0908001B0908101C2
:10157000F1E2AF16B10408F046C0C5010A9628177B
:10158000390709F040C08501085F1F4FB8018AE79D
:1015900091E00E941805F801E658FE4F2081318144
:1015A00028173907C9F580917C018130B9F58FEF93
:1015B0008F0D8830A8F5C114D10469F427E088E0C4
:1015C000F21227C090917701992309F457C04F2D4B
:1015D000B60189E09ACF81E0F812F4CF41E0B6017C
:1015E00095E0A916B10409F0DAC0009185011091C7
:1015F0008601C801807F892BA9F041E087E085CF73
:10160000F12CD12CC12C84E004C0F12CD12CC12CA4
:1016100081E04F2DB60179CF83E0FBCF82E0F9CF97
:1016200085E0F7CF0E94F5058091770141E08111B7
:10163000CFCF50927601D0927501C09274010E9472
:101640002F0589E0E3E1F1E0DE01119601900D92B2
:101650008A95E1F70D83388629E030E0AE014F5FCF
:101660005F4FB60182E00E9443051092A5011092DF
:10167000A401109279011092780117CF4090760161
:101680004420B1F100917401109175010F3F1007D2
:1016900091F00F5F1F4F0C151D0551F5F4E0FF167B
:1016A00009F4B6C0FF1550F023E0F21629F14F2DD2
:1016B000B80185E02ACF01E010E0EDCF85E0F81613
:1016C00009F4B6C098E0F912F2CF23E0A216B104F3
:1016D00069F430918201303849F02091830120383B
:1016E00029F090918401903809F0A7C048E056C0D5
:1016F0004F2DB60188E009CFE8E0AE16B10409F03D
:101700004CC020918901822F807E09F046C0E3E819
:10171000F1E08AE7C82E81E0D82E30E0819188235D
:10172000D1F191113AC04CEF480F4C3DB0F538174C
:10173000A0F5382F81E0E938F80781F78091820120
:101740001A8219828983809183018B83809184011D
:101750008C83809185018D83809186018E83809119
:1017600087018F838091880188871A861B861C8653
:101770001D862A870E94680428E030E0AE014F5F92
:101780005F4F61E00E94920397FF0BC00E94F50536
:1017900043E0B8011ECF942DCDCF43E0B80186E0E1
:1017A000B4CE0E94680424E030E0AE01465F5F4F93
:1017B00062E00E94920397FDE9CF80918901982F02
:1017C0009F719093730190918201911105C04424FF
:1017D0004394811101C0412C86E0411007C044248C
:1017E0004394F6019185911101C0412C8150FFEF86
:1017F000CF1ADF0A8111F1CF409272011093750167
:10180000009374010E942F05C8010E94A9052DCFE5
:1018100044E0AB2819F60E94DA04811104C00E944A
:10182000F50544E0B6CF1092730110927201E6CF35
:1018300045E0AB2809F0B2CFE1CF809173018F7101
:1018400089833A832B839C830E94680424E030E0E0
:10185000AE014F5F5F4F62E00E94920397FFCECFD1
:101860000E94F50548E095CF80917701882349F0E3
:101870008091B001882329F00E94DA048E250E940D
:10188000CB052FB7F8948091A7019091A801A09162
:10189000A901B091AA012FBF20916D01222389F0E7
:1018A00040916E0150916F016091700170917101D2
:1018B000841B950BA60BB70B883E9340A105B10581
:1018C000B0F42FB7F8948091A7019091A801A0914E
:1018D000A901B091AA012FBF20916801211112C066
:1018E0008114910409F499CD0E94000092CD88E101
:1018F00098E00FB6F894A895809360000FBE90937F
:101900006000FFCF4091690150916A0160916B01C5
:1019100070916C01841B950BA60BB70B8639910552
:10192000A105B105E8F28091720181110BC01092FE
:1019300068011092690110926A0110926B01109275
:101940006C01CECF0E94F505CBCFEE0FFF1F0590A7
:0A195000F491E02D0994F894FFCF04
:10195A0000C18081000000FFFFFFFF00E1000000DE
:10196A000000000101040100000600000000000060
:10197A006F031D04E203C70300000000ED02D70253
:0A198A000E0303035503130331039A
:00000001FF
